{
  "contractName": "Lottery",
  "abi": [
    {
      "inputs": [
        {
          "internalType": "uint256",
          "name": "fee",
          "type": "uint256"
        }
      ],
      "payable": false,
      "stateMutability": "nonpayable",
      "type": "constructor"
    },
    {
      "constant": true,
      "inputs": [],
      "name": "admin",
      "outputs": [
        {
          "internalType": "address",
          "name": "",
          "type": "address"
        }
      ],
      "payable": false,
      "stateMutability": "view",
      "type": "function"
    },
    {
      "constant": true,
      "inputs": [],
      "name": "betCount",
      "outputs": [
        {
          "internalType": "uint256",
          "name": "",
          "type": "uint256"
        }
      ],
      "payable": false,
      "stateMutability": "view",
      "type": "function"
    },
    {
      "constant": true,
      "inputs": [],
      "name": "betSize",
      "outputs": [
        {
          "internalType": "uint256",
          "name": "",
          "type": "uint256"
        }
      ],
      "payable": false,
      "stateMutability": "view",
      "type": "function"
    },
    {
      "constant": true,
      "inputs": [],
      "name": "currentState",
      "outputs": [
        {
          "internalType": "enum Lottery.State",
          "name": "",
          "type": "uint8"
        }
      ],
      "payable": false,
      "stateMutability": "view",
      "type": "function"
    },
    {
      "constant": true,
      "inputs": [],
      "name": "houseFee",
      "outputs": [
        {
          "internalType": "uint256",
          "name": "",
          "type": "uint256"
        }
      ],
      "payable": false,
      "stateMutability": "view",
      "type": "function"
    },
    {
      "constant": true,
      "inputs": [
        {
          "internalType": "uint256",
          "name": "",
          "type": "uint256"
        }
      ],
      "name": "players",
      "outputs": [
        {
          "internalType": "address payable",
          "name": "",
          "type": "address"
        }
      ],
      "payable": false,
      "stateMutability": "view",
      "type": "function"
    },
    {
      "constant": true,
      "inputs": [],
      "name": "getPlayers",
      "outputs": [
        {
          "internalType": "address[]",
          "name": "",
          "type": "address[]"
        }
      ],
      "payable": false,
      "stateMutability": "view",
      "type": "function"
    },
    {
      "constant": false,
      "inputs": [
        {
          "internalType": "uint256",
          "name": "count",
          "type": "uint256"
        },
        {
          "internalType": "uint256",
          "name": "size",
          "type": "uint256"
        }
      ],
      "name": "createBet",
      "outputs": [],
      "payable": true,
      "stateMutability": "payable",
      "type": "function"
    },
    {
      "constant": false,
      "inputs": [],
      "name": "bet",
      "outputs": [],
      "payable": true,
      "stateMutability": "payable",
      "type": "function"
    },
    {
      "constant": false,
      "inputs": [],
      "name": "cancel",
      "outputs": [],
      "payable": false,
      "stateMutability": "nonpayable",
      "type": "function"
    }
  ],
  "bytecode": "0x608060405260008060006101000a81548160ff0219169083600181111561002257fe5b021790555034801561003357600080fd5b50604051610c46380380610c468339818101604052602081101561005657600080fd5b81019080805190602001909291905050506001811180156100775750606381105b6100e9576040517f08c379a000000000000000000000000000000000000000000000000000000000815260040180806020018281038252601b8152602001807f466565206d757374206265206265747765656e203120746f203939000000000081525060200191505060405180910390fd5b8060048190555033600560006101000a81548173ffffffffffffffffffffffffffffffffffffffff021916908373ffffffffffffffffffffffffffffffffffffffff16021790555050610b05806101416000396000f3fe6080604052600436106100915760003560e01c8063cf09449711610059578063cf0944971461019b578063ea8a1af0146101c6578063f71d96cb146101dd578063f851a44014610258578063fff058e6146102af57610091565b80630c3f6acf146100965780630ed469b8146100cf57806311610c25146100fa5780635d1d3e26146101045780638b5b9ccc1461012f575b600080fd5b3480156100a257600080fd5b506100ab6102e7565b604051808260018111156100bb57fe5b60ff16815260200191505060405180910390f35b3480156100db57600080fd5b506100e46102f9565b6040518082815260200191505060405180910390f35b6101026102ff565b005b34801561011057600080fd5b50610119610543565b6040518082815260200191505060405180910390f35b34801561013b57600080fd5b50610144610549565b6040518080602001828103825283818151815260200191508051906020019060200280838360005b8381101561018757808201518184015260208101905061016c565b505050509050019250505060405180910390f35b3480156101a757600080fd5b506101b0610629565b6040518082815260200191505060405180910390f35b3480156101d257600080fd5b506101db61062f565b005b3480156101e957600080fd5b506102166004803603602081101561020057600080fd5b8101908080359060200190929190505050610845565b604051808273ffffffffffffffffffffffffffffffffffffffff1673ffffffffffffffffffffffffffffffffffffffff16815260200191505060405180910390f35b34801561026457600080fd5b5061026d610881565b604051808273ffffffffffffffffffffffffffffffffffffffff1673ffffffffffffffffffffffffffffffffffffffff16815260200191505060405180910390f35b6102e5600480360360408110156102c557600080fd5b8101908080359060200190929190803590602001909291905050506108a7565b005b6000809054906101000a900460ff1681565b60045481565b600180600181111561030d57fe5b6000809054906101000a900460ff16600181111561032757fe5b1461037d576040517f08c379a0000000000000000000000000000000000000000000000000000000008152600401808060200182810382526028815260200180610aa96028913960400191505060405180910390fd5b60035434146103f4576040517f08c379a000000000000000000000000000000000000000000000000000000000815260040180806020018281038252601b8152602001807f43616e206f6e6c7920626574206578616374206265742073697a65000000000081525060200191505060405180910390fd5b60013390806001815401808255809150509060018203906000526020600020016000909192909190916101000a81548173ffffffffffffffffffffffffffffffffffffffff021916908373ffffffffffffffffffffffffffffffffffffffff160217905550506002546001805490501415610540576000610476600254610a1e565b90506001818154811061048557fe5b9060005260206000200160009054906101000a900473ffffffffffffffffffffffffffffffffffffffff1673ffffffffffffffffffffffffffffffffffffffff166108fc60646004546064036002546003540202816104e057fe5b049081150290604051600060405180830381858888f1935050505015801561050c573d6000803e3d6000fd5b5060008060006101000a81548160ff0219169083600181111561052b57fe5b02179055506001600061053e9190610a62565b505b50565b60035481565b6060806001805490506040519080825280602002602001820160405280156105805781602001602082028038833980820191505090505b50905060008090505b60018054905081101561062157600181815481106105a357fe5b9060005260206000200160009054906101000a900473ffffffffffffffffffffffffffffffffffffffff168282815181106105da57fe5b602002602001019073ffffffffffffffffffffffffffffffffffffffff16908173ffffffffffffffffffffffffffffffffffffffff16815250508080600101915050610589565b508091505090565b60025481565b600180600181111561063d57fe5b6000809054906101000a900460ff16600181111561065757fe5b146106ad576040517f08c379a0000000000000000000000000000000000000000000000000000000008152600401808060200182810382526028815260200180610aa96028913960400191505060405180910390fd5b600560009054906101000a900473ffffffffffffffffffffffffffffffffffffffff1673ffffffffffffffffffffffffffffffffffffffff163373ffffffffffffffffffffffffffffffffffffffff1614610770576040517f08c379a000000000000000000000000000000000000000000000000000000000815260040180806020018281038252600a8152602001807f41646d696e206f6e6c790000000000000000000000000000000000000000000081525060200191505060405180910390fd5b60008090505b600180549050811015610810576001818154811061079057fe5b9060005260206000200160009054906101000a900473ffffffffffffffffffffffffffffffffffffffff1673ffffffffffffffffffffffffffffffffffffffff166108fc6003549081150290604051600060405180830381858888f19350505050158015610802573d6000803e3d6000fd5b508080600101915050610776565b506001600061081f9190610a62565b60008060006101000a81548160ff0219169083600181111561083d57fe5b021790555050565b6001818154811061085257fe5b906000526020600020016000915054906101000a900473ffffffffffffffffffffffffffffffffffffffff1681565b600560009054906101000a900473ffffffffffffffffffffffffffffffffffffffff1681565b60008060018111156108b557fe5b6000809054906101000a900460ff1660018111156108cf57fe5b14610925576040517f08c379a0000000000000000000000000000000000000000000000000000000008152600401808060200182810382526028815260200180610aa96028913960400191505060405180910390fd5b600560009054906101000a900473ffffffffffffffffffffffffffffffffffffffff1673ffffffffffffffffffffffffffffffffffffffff163373ffffffffffffffffffffffffffffffffffffffff16146109e8576040517f08c379a000000000000000000000000000000000000000000000000000000000815260040180806020018281038252600a8152602001807f41646d696e206f6e6c790000000000000000000000000000000000000000000081525060200191505060405180910390fd5b826002819055508160038190555060016000806101000a81548160ff02191690836001811115610a1457fe5b0217905550505050565b600081424460405160200180838152602001828152602001925050506040516020818303038152906040528051906020012060001c81610a5a57fe5b069050919050565b5080546000825590600052602060002090810190610a809190610a83565b50565b610aa591905b80821115610aa1576000816000905550600101610a89565b5090565b9056fe43757272656e7420737461746520646f6573206e6f7420616c6c6f77207472616e73616374696f6ea265627a7a72315820a84125bf0f00ed2b6615dd5bef41ac0da6d5d0118a0174a0d8d4ef49531b031d64736f6c63430005100032",
  "source": "pragma solidity ^0.5.16;\n\ncontract Lottery {\n    enum State {IDLE, BETTING}\n\n    State public currentState = State.IDLE;\n    address payable[] public players;\n    uint256 public betCount;\n    uint256 public betSize;\n    uint256 public houseFee;\n    address public admin;\n\n    constructor(uint256 fee) public {\n        require(fee > 1 && fee < 99, \"Fee must be between 1 to 99\");\n        houseFee = fee;\n        admin = msg.sender;\n    }\n\n    function getPlayers() external view returns (address[] memory) {\n        address[] memory _players = new address[](players.length);\n        for (uint256 i = 0; i < players.length; i++) {\n            _players[i] = players[i];\n        }\n        return _players;\n    }\n\n    function createBet(uint256 count, uint256 size)\n        external\n        payable\n        inState(State.IDLE)\n        onlyAdmin\n    {\n        betCount = count;\n        betSize = size;\n        currentState = State.BETTING;\n    }\n\n    function bet() external payable inState(State.BETTING) {\n        require(msg.value == betSize, \"Can only bet exact bet size\");\n        // Add participant\n        players.push(msg.sender);\n        if (players.length == betCount) {\n            uint256 winner = _randomModulo(betCount);\n            players[winner].transfer(\n                ((betSize * betCount) * (100 - houseFee)) / 100\n            );\n            currentState = State.IDLE;\n            // Clean up players array\n            delete players;\n        }\n    }\n\n    function cancel() external inState(State.BETTING) onlyAdmin {\n        for (uint256 i = 0; i < players.length; i++) {\n            players[i].transfer(betSize);\n        }\n        delete players;\n        currentState = State.IDLE;\n    }\n\n    function _randomModulo(uint256 modulo) internal view returns (uint256) {\n        // This is a simple alternative to oracles\n        // Not secure for contracts deployed to mainnet\n        return\n            uint256(\n                keccak256(abi.encodePacked(block.timestamp, block.difficulty))\n            ) % modulo;\n    }\n\n    modifier inState(State state) {\n        require(\n            currentState == state,\n            \"Current state does not allow transaction\"\n        );\n        _;\n    }\n\n    modifier onlyAdmin() {\n        require(msg.sender == admin, \"Admin only\");\n        _;\n    }\n}\n",
  "sourcePath": "/Users/heyyehudes/Documents/Dapp_30/lottery/contracts/Lottery.sol",
  "compiler": {
    "name": "solc",
    "version": "0.5.16+commit.9c3226ce.Emscripten.clang"
  },
  "schemaVersion": "3.3.1",
  "updatedAt": "2021-03-02T04:13:38.149Z",
  "networkType": "ethereum",
  "devdoc": {
    "methods": {}
  },
  "userdoc": {
    "methods": {}
  }
}