{
  "contractName": "Lottery",
  "abi": [
    {
      "inputs": [
        {
          "internalType": "uint256",
          "name": "fee",
          "type": "uint256"
        }
      ],
      "payable": false,
      "stateMutability": "nonpayable",
      "type": "constructor"
    },
    {
      "constant": true,
      "inputs": [],
      "name": "admin",
      "outputs": [
        {
          "internalType": "address",
          "name": "",
          "type": "address"
        }
      ],
      "payable": false,
      "stateMutability": "view",
      "type": "function"
    },
    {
      "constant": true,
      "inputs": [],
      "name": "betCount",
      "outputs": [
        {
          "internalType": "uint256",
          "name": "",
          "type": "uint256"
        }
      ],
      "payable": false,
      "stateMutability": "view",
      "type": "function"
    },
    {
      "constant": true,
      "inputs": [],
      "name": "betSize",
      "outputs": [
        {
          "internalType": "uint256",
          "name": "",
          "type": "uint256"
        }
      ],
      "payable": false,
      "stateMutability": "view",
      "type": "function"
    },
    {
      "constant": true,
      "inputs": [],
      "name": "currentState",
      "outputs": [
        {
          "internalType": "enum Lottery.State",
          "name": "",
          "type": "uint8"
        }
      ],
      "payable": false,
      "stateMutability": "view",
      "type": "function"
    },
    {
      "constant": true,
      "inputs": [],
      "name": "houseFee",
      "outputs": [
        {
          "internalType": "uint256",
          "name": "",
          "type": "uint256"
        }
      ],
      "payable": false,
      "stateMutability": "view",
      "type": "function"
    },
    {
      "constant": true,
      "inputs": [
        {
          "internalType": "uint256",
          "name": "",
          "type": "uint256"
        }
      ],
      "name": "players",
      "outputs": [
        {
          "internalType": "address payable",
          "name": "",
          "type": "address"
        }
      ],
      "payable": false,
      "stateMutability": "view",
      "type": "function"
    },
    {
      "constant": false,
      "inputs": [
        {
          "internalType": "uint256",
          "name": "count",
          "type": "uint256"
        },
        {
          "internalType": "uint256",
          "name": "size",
          "type": "uint256"
        }
      ],
      "name": "createBet",
      "outputs": [],
      "payable": true,
      "stateMutability": "payable",
      "type": "function"
    },
    {
      "constant": false,
      "inputs": [],
      "name": "bet",
      "outputs": [],
      "payable": true,
      "stateMutability": "payable",
      "type": "function"
    },
    {
      "constant": false,
      "inputs": [],
      "name": "cancel",
      "outputs": [],
      "payable": false,
      "stateMutability": "nonpayable",
      "type": "function"
    }
  ],
  "bytecode": "0x608060405260008060006101000a81548160ff0219169083600181111561002257fe5b021790555034801561003357600080fd5b50604051610aef380380610aef8339818101604052602081101561005657600080fd5b81019080805190602001909291905050506001811180156100775750606381105b6100e9576040517f08c379a000000000000000000000000000000000000000000000000000000000815260040180806020018281038252601b8152602001807f466565206d757374206265206265747765656e203120746f203939000000000081525060200191505060405180910390fd5b8060048190555033600560006101000a81548173ffffffffffffffffffffffffffffffffffffffff021916908373ffffffffffffffffffffffffffffffffffffffff160217905550506109ae806101416000396000f3fe6080604052600436106100865760003560e01c8063cf09449711610059578063cf09449714610124578063ea8a1af01461014f578063f71d96cb14610166578063f851a440146101e1578063fff058e61461023857610086565b80630c3f6acf1461008b5780630ed469b8146100c457806311610c25146100ef5780635d1d3e26146100f9575b600080fd5b34801561009757600080fd5b506100a0610270565b604051808260018111156100b057fe5b60ff16815260200191505060405180910390f35b3480156100d057600080fd5b506100d9610282565b6040518082815260200191505060405180910390f35b6100f7610288565b005b34801561010557600080fd5b5061010e6104cc565b6040518082815260200191505060405180910390f35b34801561013057600080fd5b506101396104d2565b6040518082815260200191505060405180910390f35b34801561015b57600080fd5b506101646104d8565b005b34801561017257600080fd5b5061019f6004803603602081101561018957600080fd5b81019080803590602001909291905050506106ee565b604051808273ffffffffffffffffffffffffffffffffffffffff1673ffffffffffffffffffffffffffffffffffffffff16815260200191505060405180910390f35b3480156101ed57600080fd5b506101f661072a565b604051808273ffffffffffffffffffffffffffffffffffffffff1673ffffffffffffffffffffffffffffffffffffffff16815260200191505060405180910390f35b61026e6004803603604081101561024e57600080fd5b810190808035906020019092919080359060200190929190505050610750565b005b6000809054906101000a900460ff1681565b60045481565b600180600181111561029657fe5b6000809054906101000a900460ff1660018111156102b057fe5b14610306576040517f08c379a00000000000000000000000000000000000000000000000000000000081526004018080602001828103825260288152602001806109526028913960400191505060405180910390fd5b600354341461037d576040517f08c379a000000000000000000000000000000000000000000000000000000000815260040180806020018281038252601b8152602001807f43616e206f6e6c7920626574206578616374206265742073697a65000000000081525060200191505060405180910390fd5b60013390806001815401808255809150509060018203906000526020600020016000909192909190916101000a81548173ffffffffffffffffffffffffffffffffffffffff021916908373ffffffffffffffffffffffffffffffffffffffff1602179055505060025460018054905014156104c95760006103ff6002546108c7565b90506001818154811061040e57fe5b9060005260206000200160009054906101000a900473ffffffffffffffffffffffffffffffffffffffff1673ffffffffffffffffffffffffffffffffffffffff166108fc606460045460640360025460035402028161046957fe5b049081150290604051600060405180830381858888f19350505050158015610495573d6000803e3d6000fd5b5060008060006101000a81548160ff021916908360018111156104b457fe5b0217905550600160006104c7919061090b565b505b50565b60035481565b60025481565b60018060018111156104e657fe5b6000809054906101000a900460ff16600181111561050057fe5b14610556576040517f08c379a00000000000000000000000000000000000000000000000000000000081526004018080602001828103825260288152602001806109526028913960400191505060405180910390fd5b600560009054906101000a900473ffffffffffffffffffffffffffffffffffffffff1673ffffffffffffffffffffffffffffffffffffffff163373ffffffffffffffffffffffffffffffffffffffff1614610619576040517f08c379a000000000000000000000000000000000000000000000000000000000815260040180806020018281038252600a8152602001807f41646d696e206f6e6c790000000000000000000000000000000000000000000081525060200191505060405180910390fd5b60008090505b6001805490508110156106b9576001818154811061063957fe5b9060005260206000200160009054906101000a900473ffffffffffffffffffffffffffffffffffffffff1673ffffffffffffffffffffffffffffffffffffffff166108fc6003549081150290604051600060405180830381858888f193505050501580156106ab573d6000803e3d6000fd5b50808060010191505061061f565b50600160006106c8919061090b565b60008060006101000a81548160ff021916908360018111156106e657fe5b021790555050565b600181815481106106fb57fe5b906000526020600020016000915054906101000a900473ffffffffffffffffffffffffffffffffffffffff1681565b600560009054906101000a900473ffffffffffffffffffffffffffffffffffffffff1681565b600080600181111561075e57fe5b6000809054906101000a900460ff16600181111561077857fe5b146107ce576040517f08c379a00000000000000000000000000000000000000000000000000000000081526004018080602001828103825260288152602001806109526028913960400191505060405180910390fd5b600560009054906101000a900473ffffffffffffffffffffffffffffffffffffffff1673ffffffffffffffffffffffffffffffffffffffff163373ffffffffffffffffffffffffffffffffffffffff1614610891576040517f08c379a000000000000000000000000000000000000000000000000000000000815260040180806020018281038252600a8152602001807f41646d696e206f6e6c790000000000000000000000000000000000000000000081525060200191505060405180910390fd5b826002819055508160038190555060016000806101000a81548160ff021916908360018111156108bd57fe5b0217905550505050565b600081424460405160200180838152602001828152602001925050506040516020818303038152906040528051906020012060001c8161090357fe5b069050919050565b5080546000825590600052602060002090810190610929919061092c565b50565b61094e91905b8082111561094a576000816000905550600101610932565b5090565b9056fe43757272656e7420737461746520646f6573206e6f7420616c6c6f77207472616e73616374696f6ea265627a7a72315820ba980444f3cb2358ce57d7ec6782e5440d5a33915cb20e6d69cd5b349efcc28c64736f6c63430005100032",
  "source": "pragma solidity ^0.5.16;\n\ncontract Lottery {\n    enum State {IDLE, BETTING}\n\n    State public currentState = State.IDLE;\n    address payable[] public players;\n    uint256 public betCount;\n    uint256 public betSize;\n    uint256 public houseFee;\n    address public admin;\n\n    constructor(uint256 fee) public {\n        require(fee > 1 && fee < 99, \"Fee must be between 1 to 99\");\n        houseFee = fee;\n        admin = msg.sender;\n    }\n\n    function createBet(uint256 count, uint256 size)\n        external\n        payable\n        inState(State.IDLE)\n        onlyAdmin\n    {\n        betCount = count;\n        betSize = size;\n        currentState = State.BETTING;\n    }\n\n    function bet() external payable inState(State.BETTING) {\n        require(msg.value == betSize, \"Can only bet exact bet size\");\n        // Add participant\n        players.push(msg.sender);\n        if (players.length == betCount) {\n            uint256 winner = _randomModulo(betCount);\n            players[winner].transfer(\n                ((betSize * betCount) * (100 - houseFee)) / 100\n            );\n            currentState = State.IDLE;\n            // Clean up players array\n            delete players;\n        }\n    }\n\n    function cancel() external inState(State.BETTING) onlyAdmin {\n        for (uint256 i = 0; i < players.length; i++) {\n            players[i].transfer(betSize);\n        }\n        delete players;\n        currentState = State.IDLE;\n    }\n\n    function _randomModulo(uint256 modulo) internal view returns (uint256) {\n        // This is a simple alternative to oracles\n        // Not secure for contracts deployed to mainnet\n        return\n            uint256(\n                keccak256(abi.encodePacked(block.timestamp, block.difficulty))\n            ) % modulo;\n    }\n\n    modifier inState(State state) {\n        require(\n            currentState == state,\n            \"Current state does not allow transaction\"\n        );\n        _;\n    }\n\n    modifier onlyAdmin() {\n        require(msg.sender == admin, \"Admin only\");\n        _;\n    }\n}\n",
  "sourcePath": "/Users/heyyehudes/Documents/Dapp_30/lottery/contracts/Lottery.sol",
  "compiler": {
    "name": "solc",
    "version": "0.5.16+commit.9c3226ce.Emscripten.clang"
  },
  "schemaVersion": "3.3.1",
  "updatedAt": "2021-03-01T02:02:59.638Z",
  "networkType": "ethereum",
  "devdoc": {
    "methods": {}
  },
  "userdoc": {
    "methods": {}
  }
}